:1000000009C048C038C01FC01EC01DC01DC01BC0D5
:100010001AC019C011241FBECFE9CDBF10E0A0E661
:10002000B0E0EAE3F3E002C005900D92A636B10716
:10003000D9F720E0A6E6B0E001C01D92A237B207D2
:10004000E1F737D078C1DCCF1F920F920FB60F9235
:1000500011248F939F9380916E0090916F00019671
:1000600090936F0080936E009F918F910F900FBEC1
:100070000F901F9018951F920F920FB60F92112498
:100080008F9381E0809368008F910F900FBE0F9047
:100090001F9018951F920F920FB60F9211248F93F5
:1000A00081E0809371008F910F900FBE0F901F9091
:1000B00018950FB6F894A89581B5886181BD11BCDB
:1000C0000FBEBB98C39ABC98C49A81E085BD85B524
:1000D0008D7F85BD3798479AB89AC098B998C19ACC
:1000E000BA98C29A85B78F7E85BF85B7877F85BF4F
:1000F00085B7806285BF89B78D7F89BF89B78460E6
:1001000089BF89B7877F89BF83B78B7F83BF83B759
:10011000826083BF83B78E7F83BF83B7806883BFCE
:1001200080EF86BF12BE10926F0010926E008BB7E8
:1001300080648BBF85B7826085BF85B78E7F85BFA2
:100140008BB780628BBFAA9A8FB780688FBF1092DF
:1001500071001092680010926F0010926E00109261
:10016000690010926D0010926C0010926B0010925A
:100170006A00109267001092660084E0809370001D
:10018000E8ECF0E041E0C5E0D0E080917100882328
:1001900039F120916E0030916F00A0917000B0E0B5
:1001A000A05ABF4F8C91082E000C990B62E370E0AF
:1001B0008AD0BF0199D0275E3F4F261B370B309363
:1001C0006D0020936C0080916E0090916F004996B5
:1001D000680F791F70936B0060936A001092710032
:1001E00080916C0090916D00009789F020916E00D5
:1001F00030916F002817390750F0809169008823EB
:1002000009F457C0C09A10926D0010926C00809152
:100210006A0090916B00009741F020916E00309140
:100220006F002817390708F046C0809168008823BE
:1002300069F0B29909C080916E0090916F00499663
:10024000909367008093660010926800809166002A
:10025000909167000097E1F020916E0030916F005F
:1002600028173907A8F0B2990FC080916900842738
:1002700080936900882329F18091700090E00196B5
:10028000BE0146D080937000109267001092660005
:1002900080916E0090916F0080917100811175CFF7
:1002A00080916800811171CF85B7806285BF889584
:1002B0006CCFC098A8CFC09810926B0010926A00C3
:1002C000B4CFC098E1CF0024552704C0080E591FB1
:1002D000880F991F009729F076956795B8F37105F7
:1002E000B9F7802D952F0895AA1BBB1B51E107C0BC
:1002F000AA1FBB1FA617B70710F0A61BB70B881FB6
:10030000991F5A95A9F780959095BC01CD01089544
:1003100097FB072E16F4009406D077FD08D0E4DF93
:1003200007FC05D03EF4909581959F4F08957095F8
:0A03300061957F4F0895F894FFCF08
:06033A0014283C50640091
:00000001FF
