:1000000009C03DC02DC014C013C012C012C010C022
:100010000FC00EC011241FBECFE9CDBF20E0A0E667
:10002000B0E001C01D92A037B207E1F737D0E3C1BD
:10003000E7CF1F920F920FB60F9211248F939F93C9
:1000400080916C0090916D00019690936D0080936B
:100050006C009F918F910F900FBE0F901F9018957D
:100060001F920F920FB60F9211248F9381E080930D
:1000700067008F910F900FBE0F901F9018951F92E1
:100080000F920FB60F9211248F9381E080936F002F
:100090008F910F900FBE0F901F90189580E090E009
:1000A00049D110926F001092670010926D0010926B
:1000B0006C0010926B0010926A001092690010920E
:1000C0006800109266001092650065E061D190931F
:1000D0006E00109264001092630010926200109201
:1000E0006100109260000FB6F894A89581B5886100
:1000F00081BD11BC0FBEB89AC098B998C19ABA9880
:10010000C29AB89AC098BC98C49A85B5816085BDDA
:100110003798479A85B78F7E85BF85B7877F85BF1C
:1001200085B7806285BF89B7846089BF8FB58260DB
:100130008FBD83B7826083BF83B7806883BF80EF42
:1001400086BF12BE8BB780648BBF85B7826085BFC8
:100150008BB780628BBFAA9A8FB780688FBFC4E6C7
:10016000D0E005E010E080916F00882331F18091AC
:100170006E008F5F64E1F2D0082E000C990B62E3F1
:1001800070E0F5D0BE0110D180916C0090916D00AF
:10019000C296861B970B90936B0080936A00645005
:1001A0007109680F791F6817790708F4BC0170930B
:1001B00069006093680010926F0080916A009091CE
:1001C0006B00009741F020916C0030916D00281772
:1001D000390708F09DC080916800909169000097F0
:1001E00041F020916C0030916D002817390708F01C
:1001F00095C080916700882369F0B29909C0809109
:100200006C0090916D004996909366008093650014
:10021000109267008091650090916600009779F1D7
:1002200020916C0030916D002817390740F1B29988
:1002300022C080916E0090E00196B801C9D08093F1
:100240006E00682F80E090E07CD080916E008F5F20
:100250008093640080916C0090916D009C012C5300
:100260003B4F30936300209362008659964F9093E2
:10027000610080936000109266001092650080918A
:10028000620090916300009741F020916C003091E2
:100290006D002817390708F047C0809160009091E1
:1002A0006100009721F120916C0030916D002817BA
:1002B0003907E8F0C39810926100109260008091B5
:1002C0006400815080936400882389F080916C00E1
:1002D00090916D009C012C533B4F30936300209311
:1002E00062008659964F90936100809360008091E0
:1002F0006C0090916D0080916F00811134CF8091DE
:100300006700811130CF85B7806285BF88952BCF7C
:10031000C09A10926B0010926A005DCFC098109244
:1003200069001092680065CFC39A10926300109222
:100330006200B3CFE199FECF8EBBE09A99278DB3CF
:100340000895262FE199FECF1CBA8EBB2DBB0FB6A8
:10035000F894E29AE19A0FBE01960895002480FD78
:10036000060E660F11F08695D1F7802D08950024B2
:10037000552704C0080E591F880F991F009729F0B0
:1003800076956795B8F37105B9F7802D952F089587
:10039000991B79E004C0991F961708F0961B881FD7
:1003A0007A95C9F780950895AA1BBB1B51E107C038
:1003B000AA1FBB1FA617B70710F0A61BB70B881FF5
:1003C000991F5A95A9F780959095BC01CD01089584
:1003D00097FB072E16F4009406D077FD08D0E4DFD3
:1003E00007FC05D03EF4909581959F4F0895709538
:0A03F00061957F4F0895F894FFCF48
:00000001FF
