:1000000009C058C048C014C013C012C02DC010C0D1
:100010000FC00EC011241FBECFE9CDBF20E0A0E667
:10002000B0E001C01D92A037B207E1F752D0D7C1AE
:10003000E7CF10926D0010926C0010926B0010923E
:100040006A00109269001092680010926600109287
:10005000650010926300109262001092610010928D
:1000600060001092640008951F920F920FB60F92D5
:1000700011248F939F9380916C0090916D00019655
:1000800090936D0080936C009F918F910F900FBEA5
:100090000F901F9018951F920F920FB60F92112478
:1000A0008F9381E0809367008F910F900FBE0F9028
:1000B0001F9018951F920F920FB60F9211248F93D5
:1000C00081E080936F008F910F900FBE0F901F9073
:1000D000189510926F0010926700ABDFE598E49AD4
:1000E0001EBAE09A8DB365E047D190936E000FB6CB
:1000F000F894A89581B5886181BD11BC0FBEB89AEE
:10010000C098B998C19ABA98C29AB89AC098BC983F
:10011000C49A85B5816085BD3798479A85B78F7E2B
:1001200085BF85B7877F85BF85B7806285BF89B763
:10013000846089BF8FB582608FBD83B7826083BFC3
:1001400083B7806883BF80EF86BF12BE8BB78064A1
:100150008BBF85B7826085BF8BB780628BBFAA9A41
:100160008FB780688FBF24E630E0E5E0F0E0809153
:100170006F00882331F180916E008F5F64E1E2D0DF
:10018000082E000C990B62E370E0E5D0B90100D1B4
:1001900080916C0090916D00C296861B970B909396
:1001A0006B0080936A0064507109680F791F6817AB
:1001B000790708F4BC01709369006093680010929D
:1001C0006F0080916A0090916B00009741F0409120
:1001D0006C0050916D004817590708F0A1C080913C
:1001E000680090916900009741F040916C00509137
:1001F0006D004817590708F099C08091670088235F
:1002000069F0B29909C080916C0090916D00499697
:10021000909366008093650010926700809165005E
:1002200090916600009799F140916C0050916D009B
:100230004817590760F1B29926C080916E0090E08E
:100240000196BF01B9D080936E00E199FECFE59A87
:10025000E4981EBA8DBBE29AE19A80916E008F5F9E
:100260008093640080916C0090916D00AC014C53C0
:10027000564F50936300409362008659974E909377
:10028000610080936000109266001092650080917A
:10029000620090916300009741F040916C00509192
:1002A0006D004817590708F047C080916000909191
:1002B0006100009721F140916C0050916D0048174A
:1002C0005907E8F0C3981092610010926000809185
:1002D0006400815080936400882389F080916C00D1
:1002E00090916D00AC014C53564F50936300409376
:1002F00062008659974E90936100809360008091D0
:100300006C0090916D0080916F00811130CF8091D1
:10031000670081112CCF85B7806285BF889527CF74
:10032000C09A10926B0010926A0059CFC098109238
:1003300069001092680061CFC39A10926300109216
:100340006200B3CF002480FD060E660F11F0869583
:10035000D1F7802D08950024552704C0080E591F99
:10036000880F991F009729F076956795B8F3710566
:10037000B9F7802D952F0895991B79E004C0991F36
:10038000961708F0961B881F7A95C9F780950895EF
:10039000AA1BBB1B51E107C0AA1FBB1FA617B707AB
:1003A00010F0A61BB70B881F991F5A95A9F78095C7
:1003B0009095BC01CD01089597FB072E16F400948B
:1003C00006D077FD08D0E4DF07FC05D03EF4909519
:1003D00081959F4F0895709561957F4F0895F8948A
:0203E000FFCF4D
:00000001FF
